:020000020000FC
:1000000078C00F931F930FEF07BBBC9ABD9ABE9A9F
:10001000BF9AB89ABA9AC098C29804E65CD013E026
:1000200003E044D005E057D01A95D1F702E03ED066
:1000300001E051D008E22BD008E029D001E027D020
:1000400006E025D00CE023D01F910F9108950F9367
:100050001F93013011F400E80CC0023011F400ECE1
:1000600008C0033011F404E904C0043029F404ED9D
:1000700000C01A95010F0BD01F910F9108950F9397
:10008000C09A0CD0BB27A4E631D00F9108950F93EE
:10009000C09804D004E01FD00F9108950F930F93E0
:1000A000029504D00F9102D00F9108950F93C29A38
:1000B00000FFC49800FDC49A01FFC59801FDC59AD0
:1000C00002FFC69802FDC69A03FFC79803FDC79AB0
:1000D000C2980F9108950F93B1E0A2EC07D0B1E060
:1000E000A2EC04D00A95C1F70F9108951197F1F78A
:1000F000089504E00EBF0FE50DBFF8941ED081DF18
:1001000029D061D000D061D0FECF0F930000000055
:100110000000000000000A95C9F70F9108950F93A1
:10012000B1E0A2EC07D0B1E0A2EC04D00A95C1F78F
:100130000F9108951197F1F708950F93899A919A65
:10014000919805E0ECDF919A04E0DFDF89989198BF
:100150000F9108950F931F9301E011E078DF08E6F7
:100160008EDF05E78CDF0DE68ADF09E688DF04E62F
:1001700086DF09E684DF04E782DF09E780DF0AE340
:100180007EDF02E011E063DF04E779DF05E677DF79
:100190000DE675DF00E773DF05E671DF02E76FDF6D
:1001A00001E66DDF04E76BDF05E769DF02E767DF84
:1001B00005E665DF0AE363DF1F910F91089543951C
:1001C0004A3309F0089540E308950F931F9301E027
:1001D0001BE03DDF042F53DF02E01EE038DF042F79
:1001E0004EDF0FEF78DFEBDF1F910F91089511279E
:1001F00013950A500030E1F708950F93FFCF0000E8
:08020000000000000F910895B9
:00000001FF
